{"contracts/AttendanceLedger.sol":{"AttendanceLedger":{"abi":[{"inputs":[],"stateMutability":"nonpayable","type":"constructor"},{"inputs":[{"internalType":"string","name":"attendanceId","type":"string"}],"name":"AlreadyRecorded","type":"error"},{"inputs":[],"name":"NotOwner","type":"error"},{"anonymous":false,"inputs":[{"indexed":true,"internalType":"string","name":"attendanceId","type":"string"},{"indexed":true,"internalType":"string","name":"sessionId","type":"string"},{"indexed":false,"internalType":"bytes32","name":"attendanceHash","type":"bytes32"},{"indexed":false,"internalType":"uint256","name":"timestamp","type":"uint256"}],"name":"AttendanceRecorded","type":"event"},{"inputs":[{"internalType":"string","name":"attendanceId","type":"string"}],"name":"getAttendanceProof","outputs":[{"internalType":"string","name":"retAttendanceId","type":"string"},{"internalType":"string","name":"retSessionId","type":"string"},{"internalType":"bytes32","name":"retHash","type":"bytes32"},{"internalType":"uint256","name":"retTimestamp","type":"uint256"}],"stateMutability":"view","type":"function"},{"inputs":[],"name":"owner","outputs":[{"internalType":"address","name":"","type":"address"}],"stateMutability":"view","type":"function"},{"inputs":[{"internalType":"string","name":"attendanceId","type":"string"},{"internalType":"string","name":"sessionId","type":"string"},{"internalType":"bytes32","name":"attendanceHash","type":"bytes32"}],"name":"recordAttendance","outputs":[],"stateMutability":"nonpayable","type":"function"},{"inputs":[{"internalType":"string","name":"attendanceId","type":"string"},{"internalType":"bytes32","name":"hashToCheck","type":"bytes32"}],"name":"verifyAttendance","outputs":[{"internalType":"bool","name":"matches","type":"bool"},{"internalType":"bool","name":"exists_","type":"bool"}],"stateMutability":"view","type":"function"}],"evm":{"bytecode":{"linkReferences":{},"object":"60a060405234801561001057600080fd5b50336080526080516108c6610036600039600081816085015261015801526108c66000f3fe608060405234801561001057600080fd5b506004361061004c5760003560e01c806306bed7d3146100515780638da5cb5b14610080578063ad044c5b146100bf578063ff1cef92146100d4575b600080fd5b61006461005f36600461056f565b6100f7565b6040805192151583529015156020830152015b60405180910390f35b6100a77f000000000000000000000000000000000000000000000000000000000000000081565b6040516001600160a01b039091168152602001610077565b6100d26100cd3660046105bb565b61014d565b005b6100e76100e236600461062f565b610360565b60405161007794939291906106b7565b600080600080868660405161010d9291906106f0565b908152604051908190036020019020600481015490915060ff16610138576000809250925050610145565b6002015483149150600190505b935093915050565b336001600160a01b037f00000000000000000000000000000000000000000000000000000000000000001614610196576040516330cd747160e01b815260040160405180910390fd5b600085856040516101a89291906106f0565b9081526040519081900360200190206004015460ff16156101e95784846040516305c7b4c360e41b81526004016101e0929190610700565b60405180910390fd5b6040518060a0016040528086868080601f016020809104026020016040519081016040528093929190818152602001838380828437600092019190915250505090825250604080516020601f870181900481028201810190925285815291810191908690869081908401838280828437600092018290525093855250505060208201849052426040808401919091526001606090930192909252905161029290889088906106f0565b908152604051908190036020019020815181906102af90826107d0565b50602082015160018201906102c490826107d0565b506040828101516002830155606083015160038301556080909201516004909101805460ff19169115159190911790555161030290849084906106f0565b6040518091039020858560405161031a9291906106f0565b60408051918290038220848352426020840152917f3745979a66807e3aeaa7570b5de68a9d1ff0310246806ad715ad2541561a4496910160405180910390a35050505050565b60608060008060008087876040516103799291906106f0565b908152604051908190036020019020600481015490915060ff166103ea5760405162461bcd60e51b815260206004820152602260248201527f417474656e64616e63654c65646765723a207265636f7264206e6f7420666f756044820152611b9960f21b60648201526084016101e0565b80600001816001018260020154836003015483805461040890610745565b80601f016020809104026020016040519081016040528092919081815260200182805461043490610745565b80156104815780601f1061045657610100808354040283529160200191610481565b820191906000526020600020905b81548152906001019060200180831161046457829003601f168201915b5050505050935082805461049490610745565b80601f01602080910402602001604051908101604052809291908181526020018280546104c090610745565b801561050d5780601f106104e25761010080835404028352916020019161050d565b820191906000526020600020905b8154815290600101906020018083116104f057829003601f168201915b5050505050925094509450945094505092959194509250565b60008083601f84011261053857600080fd5b50813567ffffffffffffffff81111561055057600080fd5b60208301915083602082850101111561056857600080fd5b9250929050565b60008060006040848603121561058457600080fd5b833567ffffffffffffffff81111561059b57600080fd5b6105a786828701610526565b909790965060209590950135949350505050565b6000806000806000606086880312156105d357600080fd5b853567ffffffffffffffff808211156105eb57600080fd5b6105f789838a01610526565b9097509550602088013591508082111561061057600080fd5b5061061d88828901610526565b96999598509660400135949350505050565b6000806020838503121561064257600080fd5b823567ffffffffffffffff81111561065957600080fd5b61066585828601610526565b90969095509350505050565b6000815180845260005b818110156106975760208185018101518683018201520161067b565b506000602082860101526020601f19601f83011685010191505092915050565b6080815260006106ca6080830187610671565b82810360208401526106dc8187610671565b604084019590955250506060015292915050565b8183823760009101908152919050565b60208152816020820152818360408301376000818301604090810191909152601f909201601f19160101919050565b634e487b7160e01b600052604160045260246000fd5b600181811c9082168061075957607f821691505b60208210810361077957634e487b7160e01b600052602260045260246000fd5b50919050565b601f8211156107cb576000816000526020600020601f850160051c810160208610156107a85750805b601f850160051c820191505b818110156107c7578281556001016107b4565b5050505b505050565b815167ffffffffffffffff8111156107ea576107ea61072f565b6107fe816107f88454610745565b8461077f565b602080601f831160018114610833576000841561081b5750858301515b600019600386901b1c1916600185901b1785556107c7565b600085815260208120601f198616915b8281101561086257888601518255948401946001909101908401610843565b50858210156108805787850151600019600388901b60f8161c191681555b5050505050600190811b0190555056fea26469706673582212207ca2c8386ba1cb51fbacabf6ff4be2e2e96b3e28f1e984269fbb76942c293dc064736f6c63430008180033","opcodes":"PUSH1 0xA0 PUSH1 0x40 MSTORE CALLVALUE DUP1 ISZERO PUSH2 0x10 JUMPI PUSH1 0x0 DUP1 REVERT JUMPDEST POP CALLER PUSH1 0x80 MSTORE PUSH1 0x80 MLOAD PUSH2 0x8C6 PUSH2 0x36 PUSH1 0x0 CODECOPY PUSH1 0x0 DUP2 DUP2 PUSH1 0x85 ADD MSTORE PUSH2 0x158 ADD MSTORE PUSH2 0x8C6 PUSH1 0x0 RETURN INVALID PUSH1 0x80 PUSH1 0x40 MSTORE CALLVALUE DUP1 ISZERO PUSH2 0x10 JUMPI PUSH1 0x0 DUP1 REVERT JUMPDEST POP PUSH1 0x4 CALLDATASIZE LT PUSH2 0x4C JUMPI PUSH1 0x0 CALLDATALOAD PUSH1 0xE0 SHR DUP1 PUSH4 0x6BED7D3 EQ PUSH2 0x51 JUMPI DUP1 PUSH4 0x8DA5CB5B EQ PUSH2 0x80 JUMPI DUP1 PUSH4 0xAD044C5B EQ PUSH2 0xBF JUMPI DUP1 PUSH4 0xFF1CEF92 EQ PUSH2 0xD4 JUMPI JUMPDEST PUSH1 0x0 DUP1 REVERT JUMPDEST PUSH2 0x64 PUSH2 0x5F CALLDATASIZE PUSH1 0x4 PUSH2 0x56F JUMP JUMPDEST PUSH2 0xF7 JUMP JUMPDEST PUSH1 0x40 DUP1 MLOAD SWAP3 ISZERO ISZERO DUP4 MSTORE SWAP1 ISZERO ISZERO PUSH1 0x20 DUP4 ADD MSTORE ADD JUMPDEST PUSH1 0x40 MLOAD DUP1 SWAP2 SUB SWAP1 RETURN JUMPDEST PUSH2 0xA7 PUSH32 0x0 DUP2 JUMP JUMPDEST PUSH1 0x40 MLOAD PUSH1 0x1 PUSH1 0x1 PUSH1 0xA0 SHL SUB SWAP1 SWAP2 AND DUP2 MSTORE PUSH1 0x20 ADD PUSH2 0x77 JUMP JUMPDEST PUSH2 0xD2 PUSH2 0xCD CALLDATASIZE PUSH1 0x4 PUSH2 0x5BB JUMP JUMPDEST PUSH2 0x14D JUMP JUMPDEST STOP JUMPDEST PUSH2 0xE7 PUSH2 0xE2 CALLDATASIZE PUSH1 0x4 PUSH2 0x62F JUMP JUMPDEST PUSH2 0x360 JUMP JUMPDEST PUSH1 0x40 MLOAD PUSH2 0x77 SWAP5 SWAP4 SWAP3 SWAP2 SWAP1 PUSH2 0x6B7 JUMP JUMPDEST PUSH1 0x0 DUP1 PUSH1 0x0 DUP1 DUP7 DUP7 PUSH1 0x40 MLOAD PUSH2 0x10D SWAP3 SWAP2 SWAP1 PUSH2 0x6F0 JUMP JUMPDEST SWAP1 DUP2 MSTORE PUSH1 0x40 MLOAD SWAP1 DUP2 SWAP1 SUB PUSH1 0x20 ADD SWAP1 KECCAK256 PUSH1 0x4 DUP2 ADD SLOAD SWAP1 SWAP2 POP PUSH1 0xFF AND PUSH2 0x138 JUMPI PUSH1 0x0 DUP1 SWAP3 POP SWAP3 POP POP PUSH2 0x145 JUMP JUMPDEST PUSH1 0x2 ADD SLOAD DUP4 EQ SWAP2 POP PUSH1 0x1 SWAP1 POP JUMPDEST SWAP4 POP SWAP4 SWAP2 POP POP JUMP JUMPDEST CALLER PUSH1 0x1 PUSH1 0x1 PUSH1 0xA0 SHL SUB PUSH32 0x0 AND EQ PUSH2 0x196 JUMPI PUSH1 0x40 MLOAD PUSH4 0x30CD7471 PUSH1 0xE0 SHL DUP2 MSTORE PUSH1 0x4 ADD PUSH1 0x40 MLOAD DUP1 SWAP2 SUB SWAP1 REVERT JUMPDEST PUSH1 0x0 DUP6 DUP6 PUSH1 0x40 MLOAD PUSH2 0x1A8 SWAP3 SWAP2 SWAP1 PUSH2 0x6F0 JUMP JUMPDEST SWAP1 DUP2 MSTORE PUSH1 0x40 MLOAD SWAP1 DUP2 SWAP1 SUB PUSH1 0x20 ADD SWAP1 KECCAK256 PUSH1 0x4 ADD SLOAD PUSH1 0xFF AND ISZERO PUSH2 0x1E9 JUMPI DUP5 DUP5 PUSH1 0x40 MLOAD PUSH4 0x5C7B4C3 PUSH1 0xE4 SHL DUP2 MSTORE PUSH1 0x4 ADD PUSH2 0x1E0 SWAP3 SWAP2 SWAP1 PUSH2 0x700 JUMP JUMPDEST PUSH1 0x40 MLOAD DUP1 SWAP2 SUB SWAP1 REVERT JUMPDEST PUSH1 0x40 MLOAD DUP1 PUSH1 0xA0 ADD PUSH1 0x40 MSTORE DUP1 DUP7 DUP7 DUP1 DUP1 PUSH1 0x1F ADD PUSH1 0x20 DUP1 SWAP2 DIV MUL PUSH1 0x20 ADD PUSH1 0x40 MLOAD SWAP1 DUP2 ADD PUSH1 0x40 MSTORE DUP1 SWAP4 SWAP3 SWAP2 SWAP1 DUP2 DUP2 MSTORE PUSH1 0x20 ADD DUP4 DUP4 DUP1 DUP3 DUP5 CALLDATACOPY PUSH1 0x0 SWAP3 ADD SWAP2 SWAP1 SWAP2 MSTORE POP POP POP SWAP1 DUP3 MSTORE POP PUSH1 0x40 DUP1 MLOAD PUSH1 0x20 PUSH1 0x1F DUP8 ADD DUP2 SWAP1 DIV DUP2 MUL DUP3 ADD DUP2 ADD SWAP1 SWAP3 MSTORE DUP6 DUP2 MSTORE SWAP2 DUP2 ADD SWAP2 SWAP1 DUP7 SWAP1 DUP7 SWAP1 DUP2 SWAP1 DUP5 ADD DUP4 DUP3 DUP1 DUP3 DUP5 CALLDATACOPY PUSH1 0x0 SWAP3 ADD DUP3 SWAP1 MSTORE POP SWAP4 DUP6 MSTORE POP POP POP PUSH1 0x20 DUP3 ADD DUP5 SWAP1 MSTORE TIMESTAMP PUSH1 0x40 DUP1 DUP5 ADD SWAP2 SWAP1 SWAP2 MSTORE PUSH1 0x1 PUSH1 0x60 SWAP1 SWAP4 ADD SWAP3 SWAP1 SWAP3 MSTORE SWAP1 MLOAD PUSH2 0x292 SWAP1 DUP9 SWAP1 DUP9 SWAP1 PUSH2 0x6F0 JUMP JUMPDEST SWAP1 DUP2 MSTORE PUSH1 0x40 MLOAD SWAP1 DUP2 SWAP1 SUB PUSH1 0x20 ADD SWAP1 KECCAK256 DUP2 MLOAD DUP2 SWAP1 PUSH2 0x2AF SWAP1 DUP3 PUSH2 0x7D0 JUMP JUMPDEST POP PUSH1 0x20 DUP3 ADD MLOAD PUSH1 0x1 DUP3 ADD SWAP1 PUSH2 0x2C4 SWAP1 DUP3 PUSH2 0x7D0 JUMP JUMPDEST POP PUSH1 0x40 DUP3 DUP2 ADD MLOAD PUSH1 0x2 DUP4 ADD SSTORE PUSH1 0x60 DUP4 ADD MLOAD PUSH1 0x3 DUP4 ADD SSTORE PUSH1 0x80 SWAP1 SWAP3 ADD MLOAD PUSH1 0x4 SWAP1 SWAP2 ADD DUP1 SLOAD PUSH1 0xFF NOT AND SWAP2 ISZERO ISZERO SWAP2 SWAP1 SWAP2 OR SWAP1 SSTORE MLOAD PUSH2 0x302 SWAP1 DUP5 SWAP1 DUP5 SWAP1 PUSH2 0x6F0 JUMP JUMPDEST PUSH1 0x40 MLOAD DUP1 SWAP2 SUB SWAP1 KECCAK256 DUP6 DUP6 PUSH1 0x40 MLOAD PUSH2 0x31A SWAP3 SWAP2 SWAP1 PUSH2 0x6F0 JUMP JUMPDEST PUSH1 0x40 DUP1 MLOAD SWAP2 DUP3 SWAP1 SUB DUP3 KECCAK256 DUP5 DUP4 MSTORE TIMESTAMP PUSH1 0x20 DUP5 ADD MSTORE SWAP2 PUSH32 0x3745979A66807E3AEAA7570B5DE68A9D1FF0310246806AD715AD2541561A4496 SWAP2 ADD PUSH1 0x40 MLOAD DUP1 SWAP2 SUB SWAP1 LOG3 POP POP POP POP POP JUMP JUMPDEST PUSH1 0x60 DUP1 PUSH1 0x0 DUP1 PUSH1 0x0 DUP1 DUP8 DUP8 PUSH1 0x40 MLOAD PUSH2 0x379 SWAP3 SWAP2 SWAP1 PUSH2 0x6F0 JUMP JUMPDEST SWAP1 DUP2 MSTORE PUSH1 0x40 MLOAD SWAP1 DUP2 SWAP1 SUB PUSH1 0x20 ADD SWAP1 KECCAK256 PUSH1 0x4 DUP2 ADD SLOAD SWAP1 SWAP2 POP PUSH1 0xFF AND PUSH2 0x3EA JUMPI PUSH1 0x40 MLOAD PUSH3 0x461BCD PUSH1 0xE5 SHL DUP2 MSTORE PUSH1 0x20 PUSH1 0x4 DUP3 ADD MSTORE PUSH1 0x22 PUSH1 0x24 DUP3 ADD MSTORE PUSH32 0x417474656E64616E63654C65646765723A207265636F7264206E6F7420666F75 PUSH1 0x44 DUP3 ADD MSTORE PUSH2 0x1B99 PUSH1 0xF2 SHL PUSH1 0x64 DUP3 ADD MSTORE PUSH1 0x84 ADD PUSH2 0x1E0 JUMP JUMPDEST DUP1 PUSH1 0x0 ADD DUP2 PUSH1 0x1 ADD DUP3 PUSH1 0x2 ADD SLOAD DUP4 PUSH1 0x3 ADD SLOAD DUP4 DUP1 SLOAD PUSH2 0x408 SWAP1 PUSH2 0x745 JUMP JUMPDEST DUP1 PUSH1 0x1F ADD PUSH1 0x20 DUP1 SWAP2 DIV MUL PUSH1 0x20 ADD PUSH1 0x40 MLOAD SWAP1 DUP2 ADD PUSH1 0x40 MSTORE DUP1 SWAP3 SWAP2 SWAP1 DUP2 DUP2 MSTORE PUSH1 0x20 ADD DUP3 DUP1 SLOAD PUSH2 0x434 SWAP1 PUSH2 0x745 JUMP JUMPDEST DUP1 ISZERO PUSH2 0x481 JUMPI DUP1 PUSH1 0x1F LT PUSH2 0x456 JUMPI PUSH2 0x100 DUP1 DUP4 SLOAD DIV MUL DUP4 MSTORE SWAP2 PUSH1 0x20 ADD SWAP2 PUSH2 0x481 JUMP JUMPDEST DUP3 ADD SWAP2 SWAP1 PUSH1 0x0 MSTORE PUSH1 0x20 PUSH1 0x0 KECCAK256 SWAP1 JUMPDEST DUP2 SLOAD DUP2 MSTORE SWAP1 PUSH1 0x1 ADD SWAP1 PUSH1 0x20 ADD DUP1 DUP4 GT PUSH2 0x464 JUMPI DUP3 SWAP1 SUB PUSH1 0x1F AND DUP3 ADD SWAP2 JUMPDEST POP POP POP POP POP SWAP4 POP DUP3 DUP1 SLOAD PUSH2 0x494 SWAP1 PUSH2 0x745 JUMP JUMPDEST DUP1 PUSH1 0x1F ADD PUSH1 0x20 DUP1 SWAP2 DIV MUL PUSH1 0x20 ADD PUSH1 0x40 MLOAD SWAP1 DUP2 ADD PUSH1 0x40 MSTORE DUP1 SWAP3 SWAP2 SWAP1 DUP2 DUP2 MSTORE PUSH1 0x20 ADD DUP3 DUP1 SLOAD PUSH2 0x4C0 SWAP1 PUSH2 0x745 JUMP JUMPDEST DUP1 ISZERO PUSH2 0x50D JUMPI DUP1 PUSH1 0x1F LT PUSH2 0x4E2 JUMPI PUSH2 0x100 DUP1 DUP4 SLOAD DIV MUL DUP4 MSTORE SWAP2 PUSH1 0x20 ADD SWAP2 PUSH2 0x50D JUMP JUMPDEST DUP3 ADD SWAP2 SWAP1 PUSH1 0x0 MSTORE PUSH1 0x20 PUSH1 0x0 KECCAK256 SWAP1 JUMPDEST DUP2 SLOAD DUP2 MSTORE SWAP1 PUSH1 0x1 ADD SWAP1 PUSH1 0x20 ADD DUP1 DUP4 GT PUSH2 0x4F0 JUMPI DUP3 SWAP1 SUB PUSH1 0x1F AND DUP3 ADD SWAP2 JUMPDEST POP POP POP POP POP SWAP3 POP SWAP5 POP SWAP5 POP SWAP5 POP SWAP5 POP POP SWAP3 SWAP6 SWAP2 SWAP5 POP SWAP3 POP JUMP JUMPDEST PUSH1 0x0 DUP1 DUP4 PUSH1 0x1F DUP5 ADD SLT PUSH2 0x538 JUMPI PUSH1 0x0 DUP1 REVERT JUMPDEST POP DUP2 CALLDATALOAD PUSH8 0xFFFFFFFFFFFFFFFF DUP2 GT ISZERO PUSH2 0x550 JUMPI PUSH1 0x0 DUP1 REVERT JUMPDEST PUSH1 0x20 DUP4 ADD SWAP2 POP DUP4 PUSH1 0x20 DUP3 DUP6 ADD ADD GT ISZERO PUSH2 0x568 JUMPI PUSH1 0x0 DUP1 REVERT JUMPDEST SWAP3 POP SWAP3 SWAP1 POP JUMP JUMPDEST PUSH1 0x0 DUP1 PUSH1 0x0 PUSH1 0x40 DUP5 DUP7 SUB SLT ISZERO PUSH2 0x584 JUMPI PUSH1 0x0 DUP1 REVERT JUMPDEST DUP4 CALLDATALOAD PUSH8 0xFFFFFFFFFFFFFFFF DUP2 GT ISZERO PUSH2 0x59B JUMPI PUSH1 0x0 DUP1 REVERT JUMPDEST PUSH2 0x5A7 DUP7 DUP3 DUP8 ADD PUSH2 0x526 JUMP JUMPDEST SWAP1 SWAP8 SWAP1 SWAP7 POP PUSH1 0x20 SWAP6 SWAP1 SWAP6 ADD CALLDATALOAD SWAP5 SWAP4 POP POP POP POP JUMP JUMPDEST PUSH1 0x0 DUP1 PUSH1 0x0 DUP1 PUSH1 0x0 PUSH1 0x60 DUP7 DUP9 SUB SLT ISZERO PUSH2 0x5D3 JUMPI PUSH1 0x0 DUP1 REVERT JUMPDEST DUP6 CALLDATALOAD PUSH8 0xFFFFFFFFFFFFFFFF DUP1 DUP3 GT ISZERO PUSH2 0x5EB JUMPI PUSH1 0x0 DUP1 REVERT JUMPDEST PUSH2 0x5F7 DUP10 DUP4 DUP11 ADD PUSH2 0x526 JUMP JUMPDEST SWAP1 SWAP8 POP SWAP6 POP PUSH1 0x20 DUP9 ADD CALLDATALOAD SWAP2 POP DUP1 DUP3 GT ISZERO PUSH2 0x610 JUMPI PUSH1 0x0 DUP1 REVERT JUMPDEST POP PUSH2 0x61D DUP9 DUP3 DUP10 ADD PUSH2 0x526 JUMP JUMPDEST SWAP7 SWAP10 SWAP6 SWAP9 POP SWAP7 PUSH1 0x40 ADD CALLDATALOAD SWAP5 SWAP4 POP POP POP POP JUMP JUMPDEST PUSH1 0x0 DUP1 PUSH1 0x20 DUP4 DUP6 SUB SLT ISZERO PUSH2 0x642 JUMPI PUSH1 0x0 DUP1 REVERT JUMPDEST DUP3 CALLDATALOAD PUSH8 0xFFFFFFFFFFFFFFFF DUP2 GT ISZERO PUSH2 0x659 JUMPI PUSH1 0x0 DUP1 REVERT JUMPDEST PUSH2 0x665 DUP6 DUP3 DUP7 ADD PUSH2 0x526 JUMP JUMPDEST SWAP1 SWAP7 SWAP1 SWAP6 POP SWAP4 POP POP POP POP JUMP JUMPDEST PUSH1 0x0 DUP2 MLOAD DUP1 DUP5 MSTORE PUSH1 0x0 JUMPDEST DUP2 DUP2 LT ISZERO PUSH2 0x697 JUMPI PUSH1 0x20 DUP2 DUP6 ADD DUP2 ADD MLOAD DUP7 DUP4 ADD DUP3 ADD MSTORE ADD PUSH2 0x67B JUMP JUMPDEST POP PUSH1 0x0 PUSH1 0x20 DUP3 DUP7 ADD ADD MSTORE PUSH1 0x20 PUSH1 0x1F NOT PUSH1 0x1F DUP4 ADD AND DUP6 ADD ADD SWAP2 POP POP SWAP3 SWAP2 POP POP JUMP JUMPDEST PUSH1 0x80 DUP2 MSTORE PUSH1 0x0 PUSH2 0x6CA PUSH1 0x80 DUP4 ADD DUP8 PUSH2 0x671 JUMP JUMPDEST DUP3 DUP2 SUB PUSH1 0x20 DUP5 ADD MSTORE PUSH2 0x6DC DUP2 DUP8 PUSH2 0x671 JUMP JUMPDEST PUSH1 0x40 DUP5 ADD SWAP6 SWAP1 SWAP6 MSTORE POP POP PUSH1 0x60 ADD MSTORE SWAP3 SWAP2 POP POP JUMP JUMPDEST DUP2 DUP4 DUP3 CALLDATACOPY PUSH1 0x0 SWAP2 ADD SWAP1 DUP2 MSTORE SWAP2 SWAP1 POP JUMP JUMPDEST PUSH1 0x20 DUP2 MSTORE DUP2 PUSH1 0x20 DUP3 ADD MSTORE DUP2 DUP4 PUSH1 0x40 DUP4 ADD CALLDATACOPY PUSH1 0x0 DUP2 DUP4 ADD PUSH1 0x40 SWAP1 DUP2 ADD SWAP2 SWAP1 SWAP2 MSTORE PUSH1 0x1F SWAP1 SWAP3 ADD PUSH1 0x1F NOT AND ADD ADD SWAP2 SWAP1 POP JUMP JUMPDEST PUSH4 0x4E487B71 PUSH1 0xE0 SHL PUSH1 0x0 MSTORE PUSH1 0x41 PUSH1 0x4 MSTORE PUSH1 0x24 PUSH1 0x0 REVERT JUMPDEST PUSH1 0x1 DUP2 DUP2 SHR SWAP1 DUP3 AND DUP1 PUSH2 0x759 JUMPI PUSH1 0x7F DUP3 AND SWAP2 POP JUMPDEST PUSH1 0x20 DUP3 LT DUP2 SUB PUSH2 0x779 JUMPI PUSH4 0x4E487B71 PUSH1 0xE0 SHL PUSH1 0x0 MSTORE PUSH1 0x22 PUSH1 0x4 MSTORE PUSH1 0x24 PUSH1 0x0 REVERT JUMPDEST POP SWAP2 SWAP1 POP JUMP JUMPDEST PUSH1 0x1F DUP3 GT ISZERO PUSH2 0x7CB JUMPI PUSH1 0x0 DUP2 PUSH1 0x0 MSTORE PUSH1 0x20 PUSH1 0x0 KECCAK256 PUSH1 0x1F DUP6 ADD PUSH1 0x5 SHR DUP2 ADD PUSH1 0x20 DUP7 LT ISZERO PUSH2 0x7A8 JUMPI POP DUP1 JUMPDEST PUSH1 0x1F DUP6 ADD PUSH1 0x5 SHR DUP3 ADD SWAP2 POP JUMPDEST DUP2 DUP2 LT ISZERO PUSH2 0x7C7 JUMPI DUP3 DUP2 SSTORE PUSH1 0x1 ADD PUSH2 0x7B4 JUMP JUMPDEST POP POP POP JUMPDEST POP POP POP JUMP JUMPDEST DUP2 MLOAD PUSH8 0xFFFFFFFFFFFFFFFF DUP2 GT ISZERO PUSH2 0x7EA JUMPI PUSH2 0x7EA PUSH2 0x72F JUMP JUMPDEST PUSH2 0x7FE DUP2 PUSH2 0x7F8 DUP5 SLOAD PUSH2 0x745 JUMP JUMPDEST DUP5 PUSH2 0x77F JUMP JUMPDEST PUSH1 0x20 DUP1 PUSH1 0x1F DUP4 GT PUSH1 0x1 DUP2 EQ PUSH2 0x833 JUMPI PUSH1 0x0 DUP5 ISZERO PUSH2 0x81B JUMPI POP DUP6 DUP4 ADD MLOAD JUMPDEST PUSH1 0x0 NOT PUSH1 0x3 DUP7 SWAP1 SHL SHR NOT AND PUSH1 0x1 DUP6 SWAP1 SHL OR DUP6 SSTORE PUSH2 0x7C7 JUMP JUMPDEST PUSH1 0x0 DUP6 DUP2 MSTORE PUSH1 0x20 DUP2 KECCAK256 PUSH1 0x1F NOT DUP7 AND SWAP2 JUMPDEST DUP3 DUP2 LT ISZERO PUSH2 0x862 JUMPI DUP9 DUP7 ADD MLOAD DUP3 SSTORE SWAP5 DUP5 ADD SWAP5 PUSH1 0x1 SWAP1 SWAP2 ADD SWAP1 DUP5 ADD PUSH2 0x843 JUMP JUMPDEST POP DUP6 DUP3 LT ISZERO PUSH2 0x880 JUMPI DUP8 DUP6 ADD MLOAD PUSH1 0x0 NOT PUSH1 0x3 DUP9 SWAP1 SHL PUSH1 0xF8 AND SHR NOT AND DUP2 SSTORE JUMPDEST POP POP POP POP POP PUSH1 0x1 SWAP1 DUP2 SHL ADD SWAP1 SSTORE POP JUMP INVALID LOG2 PUSH5 0x6970667358 0x22 SLT KECCAK256 PUSH29 0xA2C8386BA1CB51FBACABF6FF4BE2E2E96B3E28F1E984269FBB76942C29 RETURNDATASIZE 0xC0 PUSH5 0x736F6C6343 STOP ADDMOD XOR STOP CALLER "},"methodIdentifiers":{"getAttendanceProof(string)":"ff1cef92","owner()":"8da5cb5b","recordAttendance(string,string,bytes32)":"ad044c5b","verifyAttendance(string,bytes32)":"06bed7d3"}}}}}