{
  "_format": "hh-sol-artifact-1",
  "contractName": "AttendanceLedger",
  "sourceName": "contracts/AttendanceLedger.sol",
  "abi": [
    {
      "inputs": [],
      "stateMutability": "nonpayable",
      "type": "constructor"
    },
    {
      "inputs": [
        {
          "internalType": "string",
          "name": "attendanceId",
          "type": "string"
        }
      ],
      "name": "AlreadyRecorded",
      "type": "error"
    },
    {
      "inputs": [],
      "name": "NotOwner",
      "type": "error"
    },
    {
      "anonymous": false,
      "inputs": [
        {
          "indexed": true,
          "internalType": "string",
          "name": "attendanceId",
          "type": "string"
        },
        {
          "indexed": true,
          "internalType": "string",
          "name": "sessionId",
          "type": "string"
        },
        {
          "indexed": false,
          "internalType": "bytes32",
          "name": "attendanceHash",
          "type": "bytes32"
        },
        {
          "indexed": false,
          "internalType": "uint256",
          "name": "timestamp",
          "type": "uint256"
        }
      ],
      "name": "AttendanceRecorded",
      "type": "event"
    },
    {
      "inputs": [
        {
          "internalType": "string",
          "name": "attendanceId",
          "type": "string"
        }
      ],
      "name": "getAttendanceProof",
      "outputs": [
        {
          "internalType": "string",
          "name": "retAttendanceId",
          "type": "string"
        },
        {
          "internalType": "string",
          "name": "retSessionId",
          "type": "string"
        },
        {
          "internalType": "bytes32",
          "name": "retHash",
          "type": "bytes32"
        },
        {
          "internalType": "uint256",
          "name": "retTimestamp",
          "type": "uint256"
        }
      ],
      "stateMutability": "view",
      "type": "function"
    },
    {
      "inputs": [],
      "name": "owner",
      "outputs": [
        {
          "internalType": "address",
          "name": "",
          "type": "address"
        }
      ],
      "stateMutability": "view",
      "type": "function"
    },
    {
      "inputs": [
        {
          "internalType": "string",
          "name": "attendanceId",
          "type": "string"
        },
        {
          "internalType": "string",
          "name": "sessionId",
          "type": "string"
        },
        {
          "internalType": "bytes32",
          "name": "attendanceHash",
          "type": "bytes32"
        }
      ],
      "name": "recordAttendance",
      "outputs": [],
      "stateMutability": "nonpayable",
      "type": "function"
    },
    {
      "inputs": [
        {
          "internalType": "string",
          "name": "attendanceId",
          "type": "string"
        },
        {
          "internalType": "bytes32",
          "name": "hashToCheck",
          "type": "bytes32"
        }
      ],
      "name": "verifyAttendance",
      "outputs": [
        {
          "internalType": "bool",
          "name": "matches",
          "type": "bool"
        },
        {
          "internalType": "bool",
          "name": "exists_",
          "type": "bool"
        }
      ],
      "stateMutability": "view",
      "type": "function"
    }
  ],
  "bytecode": "0x60a060405234801561001057600080fd5b50336080526080516108c6610036600039600081816085015261015801526108c66000f3fe608060405234801561001057600080fd5b506004361061004c5760003560e01c806306bed7d3146100515780638da5cb5b14610080578063ad044c5b146100bf578063ff1cef92146100d4575b600080fd5b61006461005f36600461056f565b6100f7565b6040805192151583529015156020830152015b60405180910390f35b6100a77f000000000000000000000000000000000000000000000000000000000000000081565b6040516001600160a01b039091168152602001610077565b6100d26100cd3660046105bb565b61014d565b005b6100e76100e236600461062f565b610360565b60405161007794939291906106b7565b600080600080868660405161010d9291906106f0565b908152604051908190036020019020600481015490915060ff16610138576000809250925050610145565b6002015483149150600190505b935093915050565b336001600160a01b037f00000000000000000000000000000000000000000000000000000000000000001614610196576040516330cd747160e01b815260040160405180910390fd5b600085856040516101a89291906106f0565b9081526040519081900360200190206004015460ff16156101e95784846040516305c7b4c360e41b81526004016101e0929190610700565b60405180910390fd5b6040518060a0016040528086868080601f016020809104026020016040519081016040528093929190818152602001838380828437600092019190915250505090825250604080516020601f870181900481028201810190925285815291810191908690869081908401838280828437600092018290525093855250505060208201849052426040808401919091526001606090930192909252905161029290889088906106f0565b908152604051908190036020019020815181906102af90826107d0565b50602082015160018201906102c490826107d0565b506040828101516002830155606083015160038301556080909201516004909101805460ff19169115159190911790555161030290849084906106f0565b6040518091039020858560405161031a9291906106f0565b60408051918290038220848352426020840152917f3745979a66807e3aeaa7570b5de68a9d1ff0310246806ad715ad2541561a4496910160405180910390a35050505050565b60608060008060008087876040516103799291906106f0565b908152604051908190036020019020600481015490915060ff166103ea5760405162461bcd60e51b815260206004820152602260248201527f417474656e64616e63654c65646765723a207265636f7264206e6f7420666f756044820152611b9960f21b60648201526084016101e0565b80600001816001018260020154836003015483805461040890610745565b80601f016020809104026020016040519081016040528092919081815260200182805461043490610745565b80156104815780601f1061045657610100808354040283529160200191610481565b820191906000526020600020905b81548152906001019060200180831161046457829003601f168201915b5050505050935082805461049490610745565b80601f01602080910402602001604051908101604052809291908181526020018280546104c090610745565b801561050d5780601f106104e25761010080835404028352916020019161050d565b820191906000526020600020905b8154815290600101906020018083116104f057829003601f168201915b5050505050925094509450945094505092959194509250565b60008083601f84011261053857600080fd5b50813567ffffffffffffffff81111561055057600080fd5b60208301915083602082850101111561056857600080fd5b9250929050565b60008060006040848603121561058457600080fd5b833567ffffffffffffffff81111561059b57600080fd5b6105a786828701610526565b909790965060209590950135949350505050565b6000806000806000606086880312156105d357600080fd5b853567ffffffffffffffff808211156105eb57600080fd5b6105f789838a01610526565b9097509550602088013591508082111561061057600080fd5b5061061d88828901610526565b96999598509660400135949350505050565b6000806020838503121561064257600080fd5b823567ffffffffffffffff81111561065957600080fd5b61066585828601610526565b90969095509350505050565b6000815180845260005b818110156106975760208185018101518683018201520161067b565b506000602082860101526020601f19601f83011685010191505092915050565b6080815260006106ca6080830187610671565b82810360208401526106dc8187610671565b604084019590955250506060015292915050565b8183823760009101908152919050565b60208152816020820152818360408301376000818301604090810191909152601f909201601f19160101919050565b634e487b7160e01b600052604160045260246000fd5b600181811c9082168061075957607f821691505b60208210810361077957634e487b7160e01b600052602260045260246000fd5b50919050565b601f8211156107cb576000816000526020600020601f850160051c810160208610156107a85750805b601f850160051c820191505b818110156107c7578281556001016107b4565b5050505b505050565b815167ffffffffffffffff8111156107ea576107ea61072f565b6107fe816107f88454610745565b8461077f565b602080601f831160018114610833576000841561081b5750858301515b600019600386901b1c1916600185901b1785556107c7565b600085815260208120601f198616915b8281101561086257888601518255948401946001909101908401610843565b50858210156108805787850151600019600388901b60f8161c191681555b5050505050600190811b0190555056fea26469706673582212207ca2c8386ba1cb51fbacabf6ff4be2e2e96b3e28f1e984269fbb76942c293dc064736f6c63430008180033",
  "linkReferences": {},
  "deployedLinkReferences": {}
}